:100000000C945D000C94C6010C94F3010C948500D3
:100010000C9485000C9485000C9485000C9485004C
:100020000C9485000C9485000C9485000C9485003C
:100030000C9485000C9485000C9485000C9485002C
:100040000C94B9020C9485000C940D040C94490492
:100050000C9485000C9485000C9485000C9485000C
:100060000C9485000C94850000000007000201003C
:100070000003040600000000000000000102040864
:100080001020408001020408102001020408102002
:10009000040404040404040402020202020203032E
:1000A0000303030300000000250028002B000000CC
:1000B0000000240027002A00040511241FBECFEFF2
:1000C000D8E0DEBFCDBF11E0A0E0B1E0E6E5FDE0A5
:1000D00002C005900D92A633B107D9F711E0A6E34F
:1000E000B1E001C01D92AE3FB107E1F710E0CAEBED
:1000F000D0E004C02297FE010E94A506C83BD107AC
:10010000C9F70E9454050C94A9060C9400000F93A3
:100110001F930E940303609336017093370180930D
:1001200038019093390100913E0110913F012091D7
:100130004001309141016017710782079307B8F0C1
:100140000E9403036B5F7F4F8F4F9F4F60933E0171
:1001500070933F01809340019093410180913A0157
:1001600090913B01019690933B0180933A011F913E
:100170000F9108950F931F930E940303609336011C
:1001800070933701809338019093390100914201B7
:10019000109143012091440130914501601771078E
:1001A00082079307B8F00E9403036B5F7F4F8F4F66
:1001B0009F4F609342017093430180934401909359
:1001C000450180913C0190913D01019690933D0144
:1001D00080933C011F910F91089540E855E260E043
:1001E00070E087E591E00E94840460E082E00E9474
:1001F0004A0261E082E00E94820242E050E06AEB43
:1002000070E080E00E94A60160E083E00E944A0264
:1002100061E083E00E94820242E050E067E870E023
:1002200081E00E94A6010E94030368577C4E8F4F15
:100230009F4F6093460170934701809348019093CC
:1002400049010E940303609342017093430180932C
:100250004401909345010E94030360933E01709313
:100260003F0180934001909341010895CF93DF9324
:1002700085E00E945003EC0161E071E087E591E0C8
:100280000E9499054AE050E0BE0187E591E00E9496
:100290005F0666E071E087E591E00E949905609154
:1002A0003C0170913D014AE050E087E591E00E94F9
:1002B0005F066DE071E087E591E00E94990560912D
:1002C0003A0170913B014AE050E087E591E00E94DD
:1002D000670610923D0110923C0110923B01109272
:1002E0003A01DF91CF9108950F931F930E9403036A
:1002F00060933601709337018093380190933901F0
:100300000091460110914701209148013091490127
:100310006017710782079307B0F00E943601809141
:10032000360190913701A0913801B0913901885779
:100330009C4EAF4FBF4F8093460190934701A093CF
:100340004801B09349011F910F9108958230E8F45C
:10035000E82FF0E0EE0FFF1FE65BFE4F7183608336
:10036000813041F0809169008C7F842B80936900FB
:10037000E89A089580916900440F551F440F551F56
:10038000837F842B80936900E99A08951F920F92CE
:100390000FB60F9211242F933F934F935F936F9358
:1003A0007F938F939F93AF93BF93EF93FF9380912E
:1003B0004A0190914B01892B29F0E0914A01F0917B
:1003C0004B010995FF91EF91BF91AF919F918F9153
:1003D0007F916F915F914F913F912F910F900FBE41
:1003E0000F901F9018951F920F920FB60F92112425
:1003F0002F933F934F935F936F937F938F939F932D
:10040000AF93BF93EF93FF9380914C0190914D0177
:10041000892B29F0E0914C01F0914D010995FF9154
:10042000EF91BF91AF919F918F917F916F915F916C
:100430004F913F912F910F900FBE0F901F901895E5
:10044000833069F028F48130A1F0823011F514C0B6
:100450008630B1F08730C1F08430D9F404C0809187
:1004600080008F7703C0809180008F7D8093800013
:10047000089584B58F7702C084B58F7D84BD0895BB
:100480008091B0008F7703C08091B0008F7D809302
:10049000B0000895CF93DF9390E0FC01E458FF4F44
:1004A0004491FC01E057FF4F8491882341F190E093
:1004B000880F991FFC01E255FF4F25913491D90116
:1004C0008C559F4FFC0185919491C82FD92F9FB7D0
:1004D000F8948C91611106C0409584238C93888197
:1004E000842308C0623041F4242F209582238C930A
:1004F0008881842B888302C0842B8C939FBFDF91DB
:10050000CF9108950F931F93CF93DF931F92CDB791
:10051000DEB7282F30E0F901E859FF4F8491F90147
:10052000E458FF4F1491F901E057FF4F0491002365
:10053000D1F0882321F069830E9420026981E02F95
:10054000F0E0EE0FFF1FEC55FF4F85919491DC0119
:100550009FB7F8948C91611103C01095812301C05D
:10056000812B8C939FBF0F90DF91CF911F910F91A3
:1005700008951F920F920FB60F9211242F933F935D
:100580008F939F93AF93BF9380914E0190914F01B2
:10059000A0915001B091510130915601232F2D5F50
:1005A0002D3720F40196A11DB11D05C0232F2A5718
:1005B0000296A11DB11D2093560180934E01909388
:1005C0004F01A0935001B09351018091520190913D
:1005D0005301A0915401B09155010196A11DB11D87
:1005E0008093520190935301A0935401B09355010D
:1005F000BF91AF919F918F913F912F910F900FBE1F
:100600000F901F9018950F931F938FB7F894009138
:100610004E0110914F0120915001309151018FBF37
:10062000B801C9011F910F910895789484B5826033
:1006300084BD84B5816084BD85B5826085BD85B586
:10064000816085BDEEE6F0E0808181608083E1E835
:10065000F0E010828081826080838081816080836D
:10066000E0E8F0E0808181608083E1EBF0E0808170
:1006700084608083E0EBF0E0808181608083EAE742
:10068000F0E08081846080838081826080838081CB
:10069000816080838081806880831092C10008958A
:1006A0008E3008F08E5087702091000140E4249F26
:1006B00090011124822B80937C0080917A008064C9
:1006C00080937A0080917A0086FDFCCF209178009B
:1006D00030917900932F80E0AC01422B9A01C9013F
:1006E0000895FC0184859585FC01E05CFF4F208125
:1006F0003181FC01EE5BFF4F80819181281B390B1A
:100700002F733327C9010895FC0184859585FC0169
:10071000E05CFF4F40815181FC01EE5BFF4F208187
:1007200031814217530741F00190F081E02DE80F2D
:10073000F91F208130E002C02FEF3FEFC90108957B
:10074000FC0184859585FC01E05CFF4F408151816F
:10075000FC01EE5BFF4F208131814217530781F08E
:10076000A081B181A80FB91F8C91208131812F5FA9
:100770003F4F2F73332731832083282F30E002C06F
:100780002FEF3FEFC9010895FC0186859785FC0195
:10079000E05CFF4FDC01AE5BBF4F408151812D918A
:1007A0003C91119742175307C1F70895CF93DF93F8
:1007B000FC0186859785DC01A05CBF4F2D913C91A3
:1007C00011972F5F3F4F2F733327EC01CE5BDF4F25
:1007D0004881598124173507D9F30D90BC91A02D7C
:1007E000A80FB91F6C93A685B785A05CBF4F119663
:1007F0003C932E93A689B7892C9181E090E0058CDB
:1008000002C0880F991F0A94E2F7282B2C9381E0ED
:1008100090E0DF91CF91089508951F920F920FB647
:100820000F9211242F933F934F938F939F93EF93A6
:10083000FF934091C6008091FA019091FB010196CF
:100840008F7399272091FC013091FD018217930746
:1008500059F0E091FA01F091FB01E654FE4F40831C
:100860009093FB018093FA01FF91EF919F918F91FB
:100870004F913F912F910F900FBE0F901F901895A1
:1008800087E591E00E947103892B11F00C940C0410
:1008900008951F920F920FB60F9211242F933F933A
:1008A0008F939F93EF93FF932091B6013091B701FF
:1008B0008091B8019091B9012817390731F48091DE
:1008C000C1008F7D8093C10014C0E091B801F09108
:1008D000B901EA58FE4F20818091B8019091B90189
:1008E00001968F7399279093B9018093B801209353
:1008F000C600FF91EF919F918F913F912F910F90A3
:100900000FBE0F901F901895CF92DF92EF92FF923B
:10091000CF93DF93EC016A017B01411581EE58070B
:1009200061057105F9F0EC89FD8981E090E00E8C9C
:1009300002C0880F991F0A94E2F7808360E079E093
:100940008DE390E0A70196010E94810621503109B4
:10095000410951095695479537952795211580E10D
:10096000380798F0EC89FD89108260E874E88EE120
:1009700090E0A70196010E948106215031094109AA
:1009800051095695479537952795E889F989308318
:10099000EA89FB892083EE89FF89408181E090E02C
:1009A0009C010A8C02C0220F331F0A94E2F7422BEB
:1009B0004083EE89FF8940819C010B8C02C0220F8D
:1009C000331F0A94E2F7422B4083EE89FF8940816E
:1009D0009C010C8C02C0220F331F0A94E2F7422BB9
:1009E0004083EE89FF8920810D8C02C0880F991FFA
:1009F0000A94E2F7809582238083DF91CF91FF9064
:100A0000EF90DF90CF90089510925A011092590103
:100A100088EE93E0A0E0B0E080935B0190935C01EE
:100A2000A0935D01B0935E018AE291E0909358013A
:100A3000809357018AEB91E0909364018093630166
:100A400086E791E0909366018093650185EC90E0E4
:100A5000909368018093670184EC90E090936A0121
:100A60008093690180EC90E090936C0180936B011E
:100A700081EC90E090936E0180936D0186EC90E0A4
:100A80009093700180936F0184E08093710183E003
:100A90008093720187E08093730185E080937401F5
:100AA00081E08093750108950E9415030E94ED0076
:100AB000C0E4D4E00E9474012097E1F30E94400456
:100AC000F9CFCF92DF92EF92FF920F931F93CF93C4
:100AD000DF936C01EB017A01E60EF71E00E010E0F7
:100AE0000BC06991D601ED91FC910190F081E02D50
:100AF000C6010995080F191FCE15DF0591F7C8012A
:100B0000DF91CF911F910F91FF90EF90DF90CF90E9
:100B10000895DB010D900020E9F7AD014150510926
:100B2000461B570BDC01ED91FC910280F381E02D17
:100B300009940C948905DC01ED91FC910190F08100
:100B4000E02D09940F931F93CF93DF93EC016DE099
:100B50000E949B058C016AE0CE010E949B059C01CE
:100B6000200F311FC901DF91CF911F910F9108957F
:100B70004F925F926F927F929F92AF92BF92CF926D
:100B8000DF92EF92FF920F931F93CF93DF93CDB736
:100B9000DEB7A1970FB6F894DEBF0FBECDBF5C01E4
:100BA0006A017B01922E19A281E0821710F08AE07F
:100BB000982E8E010F5D1F4F492C512C612C712CEA
:100BC000C701B601A30192010E9481068C2D929E5D
:100BD00080191124015011098A3014F4805D01C07C
:100BE000895CF801808369017A01C114D104E104B0
:100BF000F10431F7B801C5010E948905A1960FB62D
:100C0000F894DEBF0FBECDBFDF91CF911F910F9142
:100C1000FF90EF90DF90CF90BF90AF909F907F902C
:100C20006F905F904F900895CF92DF92EF92FF9276
:100C30000F931F93CF93DF93EC016A017B01211582
:100C4000310579F4E881F9810190F081E02D642F7C
:100C5000DF91CF911F910F91FF90EF90DF90CF9098
:100C600009942A30310519F477FD0EC02AE0B70146
:100C7000A601CE01DF91CF911F910F91FF90EF90D0
:100C8000DF90CF900C94B8056DE20E949B058C011B
:100C900044275527BA014C195D096E097F092AE0DE
:100CA000CE010E94B805080F191FC801DF91CF912E
:100CB0001F910F91FF90EF90DF90CF9008959A01D0
:100CC000AB01662757FD6095762F0C9414060F93A1
:100CD0001F93CF93DF93EC019A01AB01662757FD79
:100CE0006095762F0E9414068C01CE010E94A20509
:100CF0009801280F391FC901DF91CF911F910F91E2
:100D00000895A1E21A2EAA1BBB1BFD010DC0AA1F4C
:100D1000BB1FEE1FFF1FA217B307E407F50720F064
:100D2000A21BB30BE40BF50B661F771F881F991FDF
:100D30001A9469F760957095809590959B01AC0128
:100D4000BD01CF010895EE0FFF1F0590F491E02D36
:060D50000994F894FFCFA6
:100D5600016469723A007C77696E643A007C627558
:100D6600636B65743A004E57004E005357004E456C
:100D760000530053450000000000D60361057103CF
:060D8600A0038403C40376
:00000001FF
